:100000000C9462000C948A000C948A000C948A0070
:100010000C948A000C948A000C948A000C948A0038
:100020000C948A000C948A000C948A000C948A0028
:100030000C948A000C9437050C948A000C948A0066
:100040000C94ED040C948A000C94BB040C9495045D
:100050000C948A000C948A000C948A000C948A00F8
:100060000C948A000C948A000000000024002700F1
:100070002A0000000000250028002B0000000000DE
:1000800023002600290004040404040404040202DA
:100090000202020203030303030301020408102007
:1000A0004080010204081020010204081020000012
:1000B0000008000201000003040700000000000027
:1000C00000005E0511241FBECFEFD8E0DEBFCDBF1C
:1000D00011E0A0E0B1E0EAE1FFE002C005900D927E
:1000E000A839B107D9F722E0A8E9B1E001C01D9213
:1000F000A036B207E1F710E0C2E6D0E004C02197D5
:10010000FE010E948507C136D107C9F70E94A905E3
:100110000C948B070C940000AF92BF92CF92DF92A9
:10012000EF92FF920F931F93CF93DF936C017B01AC
:100130008B01040F151FEB015E01AE18BF08C0173D
:10014000D10759F06991D601ED91FC910190F081B0
:10015000E02DC6010995892B79F7C501DF91CF9173
:100160001F910F91FF90EF90DF90CF90BF90AF90D5
:100170000895FC01538D448D252F30E0842F90E0AD
:10018000821B930B541710F0CF9608950197089592
:10019000FC01918D828D981761F0A28DAE0FBF2F5B
:1001A000B11D5D968C91928D9F5F9F73928F90E0B1
:1001B00008958FEF9FEF0895FC01918D828D981720
:1001C00031F0828DE80FF11D858D90E008958FEF5D
:1001D0009FEF0895FC01918D228D892F90E0805C26
:1001E0009F4F821B91098F73992708958BEA91E0A5
:1001F0000E94EA0021E0892B09F420E0822F089573
:1002000080E090E0892B29F00E94F60081110C9487
:1002100000000895FC01A48DA80FB92FB11DA35AA9
:10022000BF4F2C91848D90E001968F739927848F16
:10023000A689B7892C93A089B1898C918370806439
:100240008C93938D848D981306C00288F389E02DDA
:1002500080818F7D80830895EF92FF920F931F938B
:10026000CF93DF93EC0181E0888F9B8D8C8D981369
:100270001AC0E889F989808185FF15C09FB7F89475
:10028000EE89FF896083E889F989808183708064C1
:1002900080839FBF81E090E0DF91CF911F910F910C
:1002A000FF90EF900895F62E0B8D10E00F5F1F4F1B
:1002B0000F731127E02E8C8D8E110CC00FB607FC2A
:1002C000FACFE889F989808185FFF5CFCE010E94B8
:1002D0000A01F1CFEB8DEC0FFD2FF11DE35AFF4F1B
:1002E000F0829FB7F8940B8FEA89FB898081806246
:1002F000CFCFCF93DF93EC01888D8823B9F0AA8903
:10030000BB89E889F9898C9185FD03C0808186FDD0
:100310000DC00FB607FCF7CF8C9185FFF2CF80811F
:1003200085FFEDCFCE010E940A01E9CFDF91CF9189
:100330000895833081F028F4813099F08230A9F05B
:1003400008958730A9F08830C9F08430B1F48091E5
:1003500080008F7D03C0809180008F778093800024
:10036000089584B58F7784BD089584B58F7DFBCFC4
:100370008091B0008F778093B00008958091B00095
:100380008F7DF9CFCF93DF93282F30E0F901E2552D
:10039000FF4F8491F901E656FF4FD491F901EA57D6
:1003A000FF4FC491CC23A1F081110E949901EC2F41
:1003B000F0E0EE0FFF1FE458FF4FA591B491EC91D0
:1003C000ED2381E090E009F480E0DF91CF91089582
:1003D00080E090E0FACF1F93CF93DF93282F30E097
:1003E000F901E255FF4F8491F901E656FF4FD49190
:1003F000F901EA57FF4FC491CC23A9F0162F8111C0
:100400000E949901EC2FF0E0EE0FFF1FEE58FF4F16
:10041000A591B4918FB7F894EC91111108C0D095C3
:10042000DE23DC938FBFDF91CF911F910895DE2BE8
:10043000F8CFCF93DF9390E0FC01E656FF4F249175
:100440008A579F4FFC0184918823C9F090E0880F60
:10045000991FFC01E859FF4FA591B491FC01EE589A
:10046000FF4FC591D49161110DC09FB7F8948C9145
:10047000209582238C938881282328839FBFDF9136
:10048000CF910895623051F49FB7F8943C91822F38
:10049000809583238C93E8812E2BEFCF8FB7F89430
:1004A000EC912E2B2C938FBFEACF3FB7F89480911D
:1004B0009D0190919E01A0919F01B091A00126B550
:1004C000A89B05C02F3F19F00196A11DB11D3FBF8C
:1004D000BA2FA92F982F8827BC01CD01620F711D5B
:1004E000811D911D42E0660F771F881F991F4A9555
:1004F000D1F708950895089590E080E00895CF938E
:10050000DF93EC0160E08E810E94EB0161E08E815F
:100510000E94EB0160E08E810E94EB018BE891E08C
:100520000197F1F7DF91CF910895CF92DF92EF928B
:10053000FF920F931F93CF93DF936C017C0187E0B1
:10054000E80EF11CD0E0C0E0062F10E0B8010C2E40
:1005500002C0759567950A94E2F76170F701819181
:100560007F010E94EB012196C430D10579F7C601C5
:10057000DF91CF911F910F91FF90EF90DF90CF907F
:100580000C947F02CF92DF92EF92FF920F931F9312
:10059000CF93DF93EC01F62E642F8C810E94EB0148
:1005A0008D818F3F19F060E00E94EB010F2D10E06C
:1005B0008F8584FF25C06E0187E0C80ED11CF12C09
:1005C000E12CB8010E2C02C0759567950A94E2F7EC
:1005D0006170F60181916F010E94EB01FFEFEF1A4C
:1005E000FF0A88E0E816F10461F7CE01DF91CF91B0
:1005F0001F910F91FF90EF90DF90CF900C947F02AE
:10060000B80184E0759567958A95E1F7CE010E945F
:1006100095026F2DCE01DF91CF911F910F91FF9029
:10062000EF90DF90CF900C94950240E0682F88E423
:1006300092E00C94C202CF93DF93613029F0909145
:10064000570298609093570260935B0210925C028D
:1006500090E490935D0280935E02805C80935F02E1
:1006600061E080914C020E94190280914D028F3FFF
:1006700019F061E00E94190261E080914E020E942F
:100680001902C8E4D2E09E012854324080915702FA
:1006900084FD0BC084E090E021962817390744F4CC
:1006A00061E08E810E941902EECF88E090E0F4CFE5
:1006B0008BE39DE00197F1F760E080914C020E948E
:1006C000EB0160E080914E020E94EB0180914D02AF
:1006D0008F3F19F060E00E94EB018091570284FD8A
:1006E00039C063E088E492E00E949502CBE4D6E44E
:1006F000CE010197F1F763E088E492E00E94950251
:100700002197F1F763E088E492E00E94950283E587
:1007100092E00197F1F762E088E492E00E9495028E
:100720008091570280620E94150384E080935802F2
:100730008CE00E94150381E00E9415038BE39FE18A
:100740000197F1F782E08093590286E0DF91CF9123
:100750000C94150380620E9415038BE496E40197C4
:10076000F1F78091570280620E94150383E592E0C1
:100770000197F1F78091570280620E941503D0CF54
:1007800090915B02691710F06FEF690FE62FF0E0B0
:10079000E85BFD4F9489890F80680C94150341E054
:1007A0000E94C20281E090E00895FB0101900020C8
:1007B000E9F73197AF01461B570BDC01ED91FC9136
:1007C0000280F381E02D09948F929F92AF92BF92A5
:1007D000EF92FF920F931F93CF93DF93CDB7DEB7C6
:1007E000A1970FB6F894DEBF0FBECDBF7C01FA0112
:1007F000CB0119A2223008F42AE08E010F5D1F4FB1
:10080000822E912CB12CA12CBF01A50194010E9434
:100810006307F901CA016A300CF5605DD8016E9377
:100820008D01232B242B252B79F790E080E0109766
:1008300021F0BD01C7010E94D503A1960FB6F8941F
:10084000DEBF0FBECDBFDF91CF911F910F91FF9003
:10085000EF90BF90AF909F908F900895695CDECF2E
:10086000CF92DF92EF92FF920F931F93CF93DF937C
:10087000EC016A017B01E881F9810190F081E02DB2
:100880006DE209958C0144275527BA014C195D0981
:100890006E097F092AE0CE010E94E403800F911FB8
:1008A000DF91CF911F910F91FF90EF90DF90CF904C
:1008B0000895AB01770F660B770B77FD0C9430042E
:1008C0002AE00C94E4030C94D503CF93DF9380913A
:1008D000A9019091AA01019729F5C091A301D09196
:1008E000A4012196D093A401C093A30161E08EE0FE
:1008F0000E94C003AE01DD0F660B770B77FF0CC0C3
:1009000088E492E00E9430046DE271E088E492E0B5
:10091000DF91CF910C9463042AE088E492E00E9476
:10092000E403F2CFDF91CF9108951F920F920FB69B
:100930000F9211242F933F934F935F936F937F9365
:100940008F939F93AF93BF93EF93FF938BEA91E0C5
:100950000E940A01FF91EF91BF91AF919F918F91FA
:100960007F916F915F914F913F912F910F900FBEAB
:100970000F901F9018951F920F920FB60F9211248F
:100980002F938F939F93EF93FF93E091BB01F0918F
:10099000BC018081E091C101F091C20182FD1BC0C8
:1009A00090818091C4018F5F8F732091C501821760
:1009B00041F0E091C401F0E0E555FE4F958F809342
:1009C000C401FF91EF919F918F912F910F900FBED6
:1009D0000F901F9018958081F4CF1F920F920FB641
:1009E0000F9211242F933F938F939F93AF93BF93B5
:1009F0008091990190919A01A0919B01B0919C01E5
:100A00003091980123E0230F2D3758F50196A11D51
:100A1000B11D209398018093990190939A01A0931E
:100A20009B01B0939C0180919D0190919E01A091AA
:100A30009F01B091A0010196A11DB11D80939D0160
:100A400090939E01A0939F01B093A001BF91AF919D
:100A50009F918F913F912F910F900FBE0F901F90FC
:100A6000189526E8230F0296A11DB11DD2CF1F9223
:100A70000F920FB60F9211242F933F934F935F93D2
:100A80006F937F938F939F93AF93BF93EF93FF9356
:100A9000E0910001F09101010995FF91EF91BF9163
:100AA000AF919F918F917F916F915F914F913F9106
:100AB0002F910F900FBE0F901F901895EBEAF1E069
:100AC0001382128288EE93E0A0E0B0E084839583E5
:100AD000A683B78386E091E09183808385EC90E0E4
:100AE0009587848784EC90E09787868780EC90E0F8
:100AF000918B808B81EC90E0938B828B82EC90E0E9
:100B0000958B848B86EC90E0978B868B118E128E62
:100B1000138E148EE8E4F2E01382128288E191E0F1
:100B2000918380838DE084838FEF85838CE086833F
:100B30008BE087838AE0808789E0818788E08287ED
:100B40001386148615861686178661E080E10C945C
:100B50001B03789484B5826084BD84B5816084BDB4
:100B600085B5826085BD85B5816085BD80916E004B
:100B7000816080936E00109281008091810082607C
:100B800080938100809181008160809381008091B9
:100B900080008160809380008091B10084608093A8
:100BA000B1008091B00081608093B00080917A00A4
:100BB000846080937A0080917A00826080937A00CA
:100BC00080917A00816080937A0080917A008068B9
:100BD00080937A001092C100E091BB01F091BC01BA
:100BE00082E08083E091B701F091B8011082E0913A
:100BF000B901F091BA018FEC80831092C301E091AA
:100C0000BF01F091C00186E08083E091BD01F091C9
:100C1000BE01808180618083E091BD01F091BE01C1
:100C2000808188608083E091BD01F091BE01808168
:100C300080688083E091BD01F091BE0180818F7D4D
:100C4000808364E084E10E941B0360E084E00E94F2
:100C5000190262E082E00E94190280E18093810023
:100C60001092800088EA91E6909387008093860036
:100C700084E18093810085E694E090930101809364
:100C8000000181E080936F000E9415038BE39FE1D8
:100C90000197F1F760E080E00E94C00360E271E03C
:100CA00088E492E00E94630461E080E00E94C00357
:100CB0006FE271E088E492E00E94630462E080E009
:100CC0000E94C0036EE371E088E492E00E94630436
:100CD00096E0D92E00E010E0EE24E394F12C82E0BF
:100CE0000E94C201892B71F463E080E00E94C0037E
:100CF00060E571E088E492E00E946304F092AA014A
:100D0000E092A9018091A9019091AA01019709F0AF
:100D1000CEC084E00E94C2018130910511F520917E
:100D2000A7013091A801232BE1F4C091A501D09136
:100D3000A6012196D093A601C093A5019093A80186
:100D40008093A70160E08EE00E94C003BE0188E4AA
:100D500092E00E9459046DE271E088E492E00E9402
:100D6000630484E00E94C201892B51F48091A701A1
:100D70009091A801019721F41092A8011092A70167
:100D80008091A3019091A4010A9709F090C08091ED
:100D9000A5019091A601D89EE001D99ED00D112405
:100DA000D093A201C093A1011092AA011092A901AF
:100DB00062E08EE00E94C003BE0188E492E00E94DF
:100DC00059046DE271E088E492E00E94630463E0FC
:100DD00080E00E94C0036FE571E088E492E00E9429
:100DE00063041092A6011092A5011092A401109222
:100DF000A3018091A1019091A201CC97899790F1D4
:100E000063E771E08BEA91E00E94630460E871E0BF
:100E10008BEA91E00E94630462E871E08BEA91E062
:100E20000E94630460E871E08BEA91E00E94630431
:100E30006BE871E08BEA91E00E94630460E871E086
:100E40008BEA91E00E9463046091A1017091A2017C
:100E50008BEA91E00E94590460E871E08BEA91E02E
:100E60000E9463040E9455022B013C0180ED882EF4
:100E700087E0982EA12CB12C0E94550264197509A7
:100E800086099709683E734081059105A8F321E022
:100E9000821A9108A108B10888EE480E83E0581E16
:100EA000611C711C81149104A104B10429F701157E
:100EB000110509F414CF0E94F600882309F40FCF1E
:100EC0000E9400000CCFA1E21A2EAA1BBB1BFD0141
:100ED0000DC0AA1FBB1FEE1FFF1FA217B307E40719
:100EE000F50720F0A21BB30BE40BF50B661F771F71
:100EF000881F991F1A9469F7609570958095909551
:100F00009B01AC01BD01CF010895EE0FFF1F0590BD
:0A0F1000F491E02D0994F894FFCF4E
:100F1A007A02000000002C018C00B9007901EA0075
:100F2A00C800DC0000000000CF038C007C027B02BA
:100F3A0043757272656E7420484220203A2000542C
:100F4A00696D6520696E20536563203A2000484226
:100F5A0020706572204D696E20203A20302E3000B4
:100F6A00484220436F756E74696E67202E2E0050BA
:100F7A007265737320427574746F6E20616761695C
:100F8A006E2E0050617469656E74206964203100A8
:100F9A00090041626E6F726D616C0048656172741E
:080FAA0020526174653A000059
:00000001FF
